:1000000019C0FECFFDCFFCCFFBCFFACFF9CFF8CF91
:10001000F7CFF6CFF5CFF4CFF3CFF2CFF1CFF0CFCC
:10002000EFCFEECFEDCFECCFEBCF0000020004001E
:100030002A000000F894EE27ECBBF1E0FBBFEBBF19
:10004000E5BF8DE0A2E0BB27ED938A95E9F780E05C
:1000500092E0A0E6ED930197E9F7ECE2F0E08591FC
:100060009591009761F0A591B59105901590BF010C
:10007000F00105900D920197E1F7FB01F0CFEFE55C
:10008000EDBFE2E0EEBFC0EED0E000C0E0E0EBBBD1
:10009000EFEFEABBE3E3E9B9E8E5EAB94CB8F2010E
:1000A00031962F01EFEFF0E0E415F50511F444244B
:1000B0005524A4E6B0E002D0F1CFFFCF109639F07E
:1000C0008AEF90E00197F1F7A8951197C9F7089585
:00000001FF
