:1000000014C0FECFFDCFFCCFFBCFFACFF9CFF8CF96
:10001000F7CFF6CFF5CFF4CFF3CFF2CFF1CFF0CFCC
:10002000EFCFEECFEDCFECCFEBCFF894EE27ECBBDC
:10003000F1E0FBBFEBBFE5BF8DE0A2E0BB27ED9396
:100040008A95E9F780E092E0A0E6ED930197E9F761
:10005000EFE5EDBFE2E0EEBFC0EED0E000C0E1E0D2
:10006000EBBBEFEFEABBE1E0E8BBEFEFE7BB44241B
:1000700055246624772427D0EBB3AE2FEBB3EA0FD9
:10008000EBBBF20131962F01E7E0F0E0E415F50556
:1000900029F44424552417D0E1E0EBBB14D0E8B395
:1000A000AE2FE8B3EA0FE8BBF30131963F01E7E07A
:1000B000F0E0E615F70529F46624772404D0E1E0A2
:1000C000E8BBD9CFFFCFA8ECB0E000C0109639F064
:1000D0008AEF90E00197F1F7A8951197C9F7089575
:00000001FF
