:0A00000014C0FECFFDCFFCCFFBCFF4
:10000A00FACFF9CFF8CFF7CFF6CFF5CFF4CFF3CFBA
:10001A00F2CFF1CFF0CFEFCFEECFEDCFECCFEBCFEA
:10002A00F894EE27ECBBF1E0FBBFEBBFE5BF8DE038
:10003A00A2E0BB27ED938A95E9F780E092E0A0E67B
:10004A00ED930197E9F7EFE5EDBFE2E0EEBFC0EE11
:10005A00D0E000C0E0E8EBBBEABBEBB3A0E8EA27DC
:10006A00EBBBA8ECB0E002D0F8CFFFCF109639F086
:10007A008AEF90E00197F1F7A8951197C9F70895CB
:00000001FF
