:1000000010C026C0FDCFFCCFFBCFFACFF9CFF8CF81
:10001000F7CFF6CFF5CFF4CFF3CFF2CFF1CFF0CFCC
:10002000EFCFF894EE27ECBBE5BF8DE0A2E0BB2755
:10003000ED938A95E9F780E092E0A0E6ED930197D1
:10004000E9F7EFE5EDBFE2E0EEBFC0EED0E00DC0B6
:10005000AA93EA93EFB7EA93EBB3A1E0EA27EBBBED
:10006000E991EFBFE991A9911895E1E0E8BBE7BB01
:10007000EABBE0E4EBBFE2E0E5BF7894FFCFFFCF5F
:00000001FF
