:0200000010C02E
:10000200FECFFDCFFCCFFBCFFACFF9CFF8CFF7CFA2
:10001200F6CFF5CFF4CFF3CFF2CFF1CFF0CFEFCFD2
:10002200F894EE27ECBBE5BF8DE0A2E0BB27ED9391
:100032008A95E9F780E092E0A0E6ED930197E9F76F
:10004200EFE5EDBFE2E0EEBFC0EED0E000C0E0E0E1
:10005200EBBBEFEFEABBE8E5EAB9E3E3E9B9ECB100
:10006200EBBBA4E6B0E002D0FACFFFCF109639F096
:100072008AEF90E00197F1F7A8951197C9F70895D3
:00000001FF
