:0200000015C029
:10000200FECFFDCFFCCFFBCFFACFF9CFF8CFF7CFA2
:10001200F6CFF5CFF4CFF3CFF2CFF1CFF0CFEFCFD2
:1000220000000200040022000000F894EE27ECBB5E
:10003200E5BF8DE0A2E0BB27ED938A95E9F780E06A
:1000420092E0A0E6ED930197E9F7E4E2F0E0C895CB
:100052003196802DC8953196902D0097B9F0C895AC
:100062003196A02DC8953196B02DC8953196102C99
:10007200C89531966E2F7F2FF02DE12DC8953196C0
:100082000D920197D9F7E62FF72FE1CFEFE5EDBFFC
:10009200E2E0EEBFC0EED0E000C0E0E0EBBBEFEF8D
:1000A200EABBE3E3E9B9E8E5EAB94CB8E1E0F0E03C
:1000B2004E0E5F1EEFEFF0E0E415F50511F4442457
:1000C2005524A4E6B0E002D0F0CFFFCF109639F06D
:1000D2008AEF90E00197F1F7A8951197C9F7089573
:00000001FF
